{
	"contracts/4_Auction.sol": {
		"Auction": {
			"abi": [
				{
					"inputs": [],
					"name": "HighestBid",
					"outputs": [
						{
							"internalType": "uint256",
							"name": "",
							"type": "uint256"
						}
					],
					"stateMutability": "view",
					"type": "function"
				},
				{
					"inputs": [],
					"name": "HighestBidder",
					"outputs": [
						{
							"internalType": "address",
							"name": "",
							"type": "address"
						}
					],
					"stateMutability": "view",
					"type": "function"
				},
				{
					"inputs": [
						{
							"internalType": "address",
							"name": "_address",
							"type": "address"
						}
					],
					"name": "getBidderBid",
					"outputs": [
						{
							"internalType": "uint256",
							"name": "",
							"type": "uint256"
						}
					],
					"stateMutability": "view",
					"type": "function"
				},
				{
					"inputs": [],
					"name": "putBid",
					"outputs": [],
					"stateMutability": "payable",
					"type": "function"
				},
				{
					"inputs": [
						{
							"internalType": "uint256",
							"name": "_endTime",
							"type": "uint256"
						}
					],
					"name": "putEndTime",
					"outputs": [],
					"stateMutability": "nonpayable",
					"type": "function"
				}
			],
			"devdoc": {
				"kind": "dev",
				"methods": {},
				"version": 1
			},
			"evm": {
				"assembly": "    /* \"contracts/4_Auction.sol\":69:1493  contract Auction{... */\n  mstore(0x40, 0x80)\n  callvalue\n  dup1\n  iszero\n  tag_1\n  jumpi\n  0x00\n  dup1\n  revert\ntag_1:\n  pop\n  dataSize(sub_0)\n  dup1\n  dataOffset(sub_0)\n  0x00\n  codecopy\n  0x00\n  return\nstop\n\nsub_0: assembly {\n        /* \"contracts/4_Auction.sol\":69:1493  contract Auction{... */\n      mstore(0x40, 0x80)\n      jumpi(tag_1, lt(calldatasize, 0x04))\n      shr(0xe0, calldataload(0x00))\n      dup1\n      0x167fb50e\n      eq\n      tag_2\n      jumpi\n      dup1\n      0x7f6a9d50\n      eq\n      tag_3\n      jumpi\n      dup1\n      0x996657af\n      eq\n      tag_4\n      jumpi\n      dup1\n      0xe71ba2bd\n      eq\n      tag_5\n      jumpi\n      dup1\n      0xf5cc772a\n      eq\n      tag_6\n      jumpi\n    tag_1:\n      0x00\n      dup1\n      revert\n        /* \"contracts/4_Auction.sol\":1172:1259  function HighestBid() public view returns(uint){... */\n    tag_2:\n      callvalue\n      dup1\n      iszero\n      tag_7\n      jumpi\n      0x00\n      dup1\n      revert\n    tag_7:\n      pop\n      tag_8\n      tag_9\n      jump\t// in\n    tag_8:\n      mload(0x40)\n      tag_10\n      swap2\n      swap1\n      tag_11\n      jump\t// in\n    tag_10:\n      mload(0x40)\n      dup1\n      swap2\n      sub\n      swap1\n      return\n        /* \"contracts/4_Auction.sol\":1414:1491  function putEndTime(uint _endTime) public {... */\n    tag_3:\n      callvalue\n      dup1\n      iszero\n      tag_12\n      jumpi\n      0x00\n      dup1\n      revert\n    tag_12:\n      pop\n      tag_13\n      0x04\n      dup1\n      calldatasize\n      sub\n      dup2\n      add\n      swap1\n      tag_14\n      swap2\n      swap1\n      tag_15\n      jump\t// in\n    tag_14:\n      tag_16\n      jump\t// in\n    tag_13:\n      stop\n        /* \"contracts/4_Auction.sol\":1300:1390  function HighestBidder() public view returns(address){... */\n    tag_4:\n      callvalue\n      dup1\n      iszero\n      tag_17\n      jumpi\n      0x00\n      dup1\n      revert\n    tag_17:\n      pop\n      tag_18\n      tag_19\n      jump\t// in\n    tag_18:\n      mload(0x40)\n      tag_20\n      swap2\n      swap1\n      tag_21\n      jump\t// in\n    tag_20:\n      mload(0x40)\n      dup1\n      swap2\n      sub\n      swap1\n      return\n        /* \"contracts/4_Auction.sol\":1026:1137  function getBidderBid(address _address) public view returns(uint){... */\n    tag_5:\n      callvalue\n      dup1\n      iszero\n      tag_22\n      jumpi\n      0x00\n      dup1\n      revert\n    tag_22:\n      pop\n      tag_23\n      0x04\n      dup1\n      calldatasize\n      sub\n      dup2\n      add\n      swap1\n      tag_24\n      swap2\n      swap1\n      tag_25\n      jump\t// in\n    tag_24:\n      tag_26\n      jump\t// in\n    tag_23:\n      mload(0x40)\n      tag_27\n      swap2\n      swap1\n      tag_11\n      jump\t// in\n    tag_27:\n      mload(0x40)\n      dup1\n      swap2\n      sub\n      swap1\n      return\n        /* \"contracts/4_Auction.sol\":247:802  function putBid() public payable{... */\n    tag_6:\n      tag_28\n      tag_29\n      jump\t// in\n    tag_28:\n      stop\n        /* \"contracts/4_Auction.sol\":1172:1259  function HighestBid() public view returns(uint){... */\n    tag_9:\n        /* \"contracts/4_Auction.sol\":1214:1218  uint */\n      0x00\n        /* \"contracts/4_Auction.sol\":1236:1252  highestBidAmount */\n      sload(0x01)\n        /* \"contracts/4_Auction.sol\":1229:1252  return highestBidAmount */\n      swap1\n      pop\n        /* \"contracts/4_Auction.sol\":1172:1259  function HighestBid() public view returns(uint){... */\n      swap1\n      jump\t// out\n        /* \"contracts/4_Auction.sol\":1414:1491  function putEndTime(uint _endTime) public {... */\n    tag_16:\n        /* \"contracts/4_Auction.sol\":1476:1484  _endTime */\n      dup1\n        /* \"contracts/4_Auction.sol\":1466:1473  endTime */\n      0x04\n        /* \"contracts/4_Auction.sol\":1466:1484  endTime = _endTime */\n      dup2\n      swap1\n      sstore\n      pop\n        /* \"contracts/4_Auction.sol\":1414:1491  function putEndTime(uint _endTime) public {... */\n      pop\n      jump\t// out\n        /* \"contracts/4_Auction.sol\":1300:1390  function HighestBidder() public view returns(address){... */\n    tag_19:\n        /* \"contracts/4_Auction.sol\":1345:1352  address */\n      0x00\n        /* \"contracts/4_Auction.sol\":1370:1383  highestBidder */\n      0x02\n      0x00\n      swap1\n      sload\n      swap1\n      0x0100\n      exp\n      swap1\n      div\n      0xffffffffffffffffffffffffffffffffffffffff\n      and\n        /* \"contracts/4_Auction.sol\":1363:1383  return highestBidder */\n      swap1\n      pop\n        /* \"contracts/4_Auction.sol\":1300:1390  function HighestBidder() public view returns(address){... */\n      swap1\n      jump\t// out\n        /* \"contracts/4_Auction.sol\":1026:1137  function getBidderBid(address _address) public view returns(uint){... */\n    tag_26:\n        /* \"contracts/4_Auction.sol\":1086:1090  uint */\n      0x00\n        /* \"contracts/4_Auction.sol\":1109:1120  biddersData */\n      dup1\n        /* \"contracts/4_Auction.sol\":1109:1130  biddersData[_address] */\n      0x00\n        /* \"contracts/4_Auction.sol\":1121:1129  _address */\n      dup4\n        /* \"contracts/4_Auction.sol\":1109:1130  biddersData[_address] */\n      0xffffffffffffffffffffffffffffffffffffffff\n      and\n      0xffffffffffffffffffffffffffffffffffffffff\n      and\n      dup2\n      mstore\n      0x20\n      add\n      swap1\n      dup2\n      mstore\n      0x20\n      add\n      0x00\n      keccak256\n      sload\n        /* \"contracts/4_Auction.sol\":1102:1130  return biddersData[_address] */\n      swap1\n      pop\n        /* \"contracts/4_Auction.sol\":1026:1137  function getBidderBid(address _address) public view returns(uint){... */\n      swap2\n      swap1\n      pop\n      jump\t// out\n        /* \"contracts/4_Auction.sol\":247:802  function putBid() public payable{... */\n    tag_29:\n        /* \"contracts/4_Auction.sol\":290:311  uint calculatedAmount */\n      0x00\n        /* \"contracts/4_Auction.sol\":340:349  msg.value */\n      callvalue\n        /* \"contracts/4_Auction.sol\":314:325  biddersData */\n      0x00\n        /* \"contracts/4_Auction.sol\":314:337  biddersData[msg.sender] */\n      dup1\n        /* \"contracts/4_Auction.sol\":326:336  msg.sender */\n      caller\n        /* \"contracts/4_Auction.sol\":314:337  biddersData[msg.sender] */\n      0xffffffffffffffffffffffffffffffffffffffff\n      and\n      0xffffffffffffffffffffffffffffffffffffffff\n      and\n      dup2\n      mstore\n      0x20\n      add\n      swap1\n      dup2\n      mstore\n      0x20\n      add\n      0x00\n      keccak256\n      sload\n        /* \"contracts/4_Auction.sol\":314:349  biddersData[msg.sender] + msg.value */\n      tag_35\n      swap2\n      swap1\n      tag_36\n      jump\t// in\n    tag_35:\n        /* \"contracts/4_Auction.sol\":290:349  uint calculatedAmount = biddersData[msg.sender] + msg.value */\n      swap1\n      pop\n        /* \"contracts/4_Auction.sol\":416:417  0 */\n      0x00\n        /* \"contracts/4_Auction.sol\":404:413  msg.value */\n      callvalue\n        /* \"contracts/4_Auction.sol\":404:417  msg.value > 0 */\n      gt\n        /* \"contracts/4_Auction.sol\":396:441  require(msg.value > 0, \"Bid Cannot Be Zero!\") */\n      tag_37\n      jumpi\n      mload(0x40)\n      0x08c379a000000000000000000000000000000000000000000000000000000000\n      dup2\n      mstore\n      0x04\n      add\n      tag_38\n      swap1\n      tag_39\n      jump\t// in\n    tag_38:\n      mload(0x40)\n      dup1\n      swap2\n      sub\n      swap1\n      revert\n    tag_37:\n        /* \"contracts/4_Auction.sol\":517:524  endTime */\n      sload(0x04)\n        /* \"contracts/4_Auction.sol\":498:513  block.timestamp */\n      timestamp\n        /* \"contracts/4_Auction.sol\":498:524  block.timestamp <= endTime */\n      gt\n      iszero\n        /* \"contracts/4_Auction.sol\":490:545  require(block.timestamp <= endTime, \"Auction is Ended\") */\n      tag_40\n      jumpi\n      mload(0x40)\n      0x08c379a000000000000000000000000000000000000000000000000000000000\n      dup2\n      mstore\n      0x04\n      add\n      tag_41\n      swap1\n      tag_42\n      jump\t// in\n    tag_41:\n      mload(0x40)\n      dup1\n      swap2\n      sub\n      swap1\n      revert\n    tag_40:\n        /* \"contracts/4_Auction.sol\":612:628  highestBidAmount */\n      sload(0x01)\n        /* \"contracts/4_Auction.sol\":593:609  calculatedAmount */\n      dup2\n        /* \"contracts/4_Auction.sol\":593:628  calculatedAmount > highestBidAmount */\n      gt\n        /* \"contracts/4_Auction.sol\":585:661  require(calculatedAmount > highestBidAmount, \"Highest Bid Already Present!\") */\n      tag_43\n      jumpi\n      mload(0x40)\n      0x08c379a000000000000000000000000000000000000000000000000000000000\n      dup2\n      mstore\n      0x04\n      add\n      tag_44\n      swap1\n      tag_45\n      jump\t// in\n    tag_44:\n      mload(0x40)\n      dup1\n      swap2\n      sub\n      swap1\n      revert\n    tag_43:\n        /* \"contracts/4_Auction.sol\":697:713  calculatedAmount */\n      dup1\n        /* \"contracts/4_Auction.sol\":671:682  biddersData */\n      0x00\n        /* \"contracts/4_Auction.sol\":671:694  biddersData[msg.sender] */\n      dup1\n        /* \"contracts/4_Auction.sol\":683:693  msg.sender */\n      caller\n        /* \"contracts/4_Auction.sol\":671:694  biddersData[msg.sender] */\n      0xffffffffffffffffffffffffffffffffffffffff\n      and\n      0xffffffffffffffffffffffffffffffffffffffff\n      and\n      dup2\n      mstore\n      0x20\n      add\n      swap1\n      dup2\n      mstore\n      0x20\n      add\n      0x00\n      keccak256\n        /* \"contracts/4_Auction.sol\":671:713  biddersData[msg.sender] = calculatedAmount */\n      dup2\n      swap1\n      sstore\n      pop\n        /* \"contracts/4_Auction.sol\":742:758  calculatedAmount */\n      dup1\n        /* \"contracts/4_Auction.sol\":723:739  highestBidAmount */\n      0x01\n        /* \"contracts/4_Auction.sol\":723:758  highestBidAmount = calculatedAmount */\n      dup2\n      swap1\n      sstore\n      pop\n        /* \"contracts/4_Auction.sol\":784:794  msg.sender */\n      caller\n        /* \"contracts/4_Auction.sol\":768:781  highestBidder */\n      0x02\n      0x00\n        /* \"contracts/4_Auction.sol\":768:794  highestBidder = msg.sender */\n      0x0100\n      exp\n      dup2\n      sload\n      dup2\n      0xffffffffffffffffffffffffffffffffffffffff\n      mul\n      not\n      and\n      swap1\n      dup4\n      0xffffffffffffffffffffffffffffffffffffffff\n      and\n      mul\n      or\n      swap1\n      sstore\n      pop\n        /* \"contracts/4_Auction.sol\":279:802  {... */\n      pop\n        /* \"contracts/4_Auction.sol\":247:802  function putBid() public payable{... */\n      jump\t// out\n        /* \"#utility.yul\":7:146   */\n    tag_47:\n        /* \"#utility.yul\":53:58   */\n      0x00\n        /* \"#utility.yul\":91:97   */\n      dup2\n        /* \"#utility.yul\":78:98   */\n      calldataload\n        /* \"#utility.yul\":69:98   */\n      swap1\n      pop\n        /* \"#utility.yul\":107:140   */\n      tag_49\n        /* \"#utility.yul\":134:139   */\n      dup2\n        /* \"#utility.yul\":107:140   */\n      tag_50\n      jump\t// in\n    tag_49:\n        /* \"#utility.yul\":7:146   */\n      swap3\n      swap2\n      pop\n      pop\n      jump\t// out\n        /* \"#utility.yul\":152:291   */\n    tag_51:\n        /* \"#utility.yul\":198:203   */\n      0x00\n        /* \"#utility.yul\":236:242   */\n      dup2\n        /* \"#utility.yul\":223:243   */\n      calldataload\n        /* \"#utility.yul\":214:243   */\n      swap1\n      pop\n        /* \"#utility.yul\":252:285   */\n      tag_53\n        /* \"#utility.yul\":279:284   */\n      dup2\n        /* \"#utility.yul\":252:285   */\n      tag_54\n      jump\t// in\n    tag_53:\n        /* \"#utility.yul\":152:291   */\n      swap3\n      swap2\n      pop\n      pop\n      jump\t// out\n        /* \"#utility.yul\":297:626   */\n    tag_25:\n        /* \"#utility.yul\":356:362   */\n      0x00\n        /* \"#utility.yul\":405:407   */\n      0x20\n        /* \"#utility.yul\":393:402   */\n      dup3\n        /* \"#utility.yul\":384:391   */\n      dup5\n        /* \"#utility.yul\":380:403   */\n      sub\n        /* \"#utility.yul\":376:408   */\n      slt\n        /* \"#utility.yul\":373:492   */\n      iszero\n      tag_56\n      jumpi\n        /* \"#utility.yul\":411:490   */\n      tag_57\n      tag_58\n      jump\t// in\n    tag_57:\n        /* \"#utility.yul\":373:492   */\n    tag_56:\n        /* \"#utility.yul\":531:532   */\n      0x00\n        /* \"#utility.yul\":556:609   */\n      tag_59\n        /* \"#utility.yul\":601:608   */\n      dup5\n        /* \"#utility.yul\":592:598   */\n      dup3\n        /* \"#utility.yul\":581:590   */\n      dup6\n        /* \"#utility.yul\":577:599   */\n      add\n        /* \"#utility.yul\":556:609   */\n      tag_47\n      jump\t// in\n    tag_59:\n        /* \"#utility.yul\":546:609   */\n      swap2\n      pop\n        /* \"#utility.yul\":502:619   */\n      pop\n        /* \"#utility.yul\":297:626   */\n      swap3\n      swap2\n      pop\n      pop\n      jump\t// out\n        /* \"#utility.yul\":632:961   */\n    tag_15:\n        /* \"#utility.yul\":691:697   */\n      0x00\n        /* \"#utility.yul\":740:742   */\n      0x20\n        /* \"#utility.yul\":728:737   */\n      dup3\n        /* \"#utility.yul\":719:726   */\n      dup5\n        /* \"#utility.yul\":715:738   */\n      sub\n        /* \"#utility.yul\":711:743   */\n      slt\n        /* \"#utility.yul\":708:827   */\n      iszero\n      tag_61\n      jumpi\n        /* \"#utility.yul\":746:825   */\n      tag_62\n      tag_58\n      jump\t// in\n    tag_62:\n        /* \"#utility.yul\":708:827   */\n    tag_61:\n        /* \"#utility.yul\":866:867   */\n      0x00\n        /* \"#utility.yul\":891:944   */\n      tag_63\n        /* \"#utility.yul\":936:943   */\n      dup5\n        /* \"#utility.yul\":927:933   */\n      dup3\n        /* \"#utility.yul\":916:925   */\n      dup6\n        /* \"#utility.yul\":912:934   */\n      add\n        /* \"#utility.yul\":891:944   */\n      tag_51\n      jump\t// in\n    tag_63:\n        /* \"#utility.yul\":881:944   */\n      swap2\n      pop\n        /* \"#utility.yul\":837:954   */\n      pop\n        /* \"#utility.yul\":632:961   */\n      swap3\n      swap2\n      pop\n      pop\n      jump\t// out\n        /* \"#utility.yul\":967:1085   */\n    tag_64:\n        /* \"#utility.yul\":1054:1078   */\n      tag_66\n        /* \"#utility.yul\":1072:1077   */\n      dup2\n        /* \"#utility.yul\":1054:1078   */\n      tag_67\n      jump\t// in\n    tag_66:\n        /* \"#utility.yul\":1049:1052   */\n      dup3\n        /* \"#utility.yul\":1042:1079   */\n      mstore\n        /* \"#utility.yul\":967:1085   */\n      pop\n      pop\n      jump\t// out\n        /* \"#utility.yul\":1091:1457   */\n    tag_68:\n        /* \"#utility.yul\":1233:1236   */\n      0x00\n        /* \"#utility.yul\":1254:1321   */\n      tag_70\n        /* \"#utility.yul\":1318:1320   */\n      0x1c\n        /* \"#utility.yul\":1313:1316   */\n      dup4\n        /* \"#utility.yul\":1254:1321   */\n      tag_71\n      jump\t// in\n    tag_70:\n        /* \"#utility.yul\":1247:1321   */\n      swap2\n      pop\n        /* \"#utility.yul\":1330:1423   */\n      tag_72\n        /* \"#utility.yul\":1419:1422   */\n      dup3\n        /* \"#utility.yul\":1330:1423   */\n      tag_73\n      jump\t// in\n    tag_72:\n        /* \"#utility.yul\":1448:1450   */\n      0x20\n        /* \"#utility.yul\":1443:1446   */\n      dup3\n        /* \"#utility.yul\":1439:1451   */\n      add\n        /* \"#utility.yul\":1432:1451   */\n      swap1\n      pop\n        /* \"#utility.yul\":1091:1457   */\n      swap2\n      swap1\n      pop\n      jump\t// out\n        /* \"#utility.yul\":1463:1829   */\n    tag_74:\n        /* \"#utility.yul\":1605:1608   */\n      0x00\n        /* \"#utility.yul\":1626:1693   */\n      tag_76\n        /* \"#utility.yul\":1690:1692   */\n      0x10\n        /* \"#utility.yul\":1685:1688   */\n      dup4\n        /* \"#utility.yul\":1626:1693   */\n      tag_71\n      jump\t// in\n    tag_76:\n        /* \"#utility.yul\":1619:1693   */\n      swap2\n      pop\n        /* \"#utility.yul\":1702:1795   */\n      tag_77\n        /* \"#utility.yul\":1791:1794   */\n      dup3\n        /* \"#utility.yul\":1702:1795   */\n      tag_78\n      jump\t// in\n    tag_77:\n        /* \"#utility.yul\":1820:1822   */\n      0x20\n        /* \"#utility.yul\":1815:1818   */\n      dup3\n        /* \"#utility.yul\":1811:1823   */\n      add\n        /* \"#utility.yul\":1804:1823   */\n      swap1\n      pop\n        /* \"#utility.yul\":1463:1829   */\n      swap2\n      swap1\n      pop\n      jump\t// out\n        /* \"#utility.yul\":1835:2201   */\n    tag_79:\n        /* \"#utility.yul\":1977:1980   */\n      0x00\n        /* \"#utility.yul\":1998:2065   */\n      tag_81\n        /* \"#utility.yul\":2062:2064   */\n      0x13\n        /* \"#utility.yul\":2057:2060   */\n      dup4\n        /* \"#utility.yul\":1998:2065   */\n      tag_71\n      jump\t// in\n    tag_81:\n        /* \"#utility.yul\":1991:2065   */\n      swap2\n      pop\n        /* \"#utility.yul\":2074:2167   */\n      tag_82\n        /* \"#utility.yul\":2163:2166   */\n      dup3\n        /* \"#utility.yul\":2074:2167   */\n      tag_83\n      jump\t// in\n    tag_82:\n        /* \"#utility.yul\":2192:2194   */\n      0x20\n        /* \"#utility.yul\":2187:2190   */\n      dup3\n        /* \"#utility.yul\":2183:2195   */\n      add\n        /* \"#utility.yul\":2176:2195   */\n      swap1\n      pop\n        /* \"#utility.yul\":1835:2201   */\n      swap2\n      swap1\n      pop\n      jump\t// out\n        /* \"#utility.yul\":2207:2325   */\n    tag_84:\n        /* \"#utility.yul\":2294:2318   */\n      tag_86\n        /* \"#utility.yul\":2312:2317   */\n      dup2\n        /* \"#utility.yul\":2294:2318   */\n      tag_87\n      jump\t// in\n    tag_86:\n        /* \"#utility.yul\":2289:2292   */\n      dup3\n        /* \"#utility.yul\":2282:2319   */\n      mstore\n        /* \"#utility.yul\":2207:2325   */\n      pop\n      pop\n      jump\t// out\n        /* \"#utility.yul\":2331:2553   */\n    tag_21:\n        /* \"#utility.yul\":2424:2428   */\n      0x00\n        /* \"#utility.yul\":2462:2464   */\n      0x20\n        /* \"#utility.yul\":2451:2460   */\n      dup3\n        /* \"#utility.yul\":2447:2465   */\n      add\n        /* \"#utility.yul\":2439:2465   */\n      swap1\n      pop\n        /* \"#utility.yul\":2475:2546   */\n      tag_89\n        /* \"#utility.yul\":2543:2544   */\n      0x00\n        /* \"#utility.yul\":2532:2541   */\n      dup4\n        /* \"#utility.yul\":2528:2545   */\n      add\n        /* \"#utility.yul\":2519:2525   */\n      dup5\n        /* \"#utility.yul\":2475:2546   */\n      tag_64\n      jump\t// in\n    tag_89:\n        /* \"#utility.yul\":2331:2553   */\n      swap3\n      swap2\n      pop\n      pop\n      jump\t// out\n        /* \"#utility.yul\":2559:2978   */\n    tag_45:\n        /* \"#utility.yul\":2725:2729   */\n      0x00\n        /* \"#utility.yul\":2763:2765   */\n      0x20\n        /* \"#utility.yul\":2752:2761   */\n      dup3\n        /* \"#utility.yul\":2748:2766   */\n      add\n        /* \"#utility.yul\":2740:2766   */\n      swap1\n      pop\n        /* \"#utility.yul\":2812:2821   */\n      dup2\n        /* \"#utility.yul\":2806:2810   */\n      dup2\n        /* \"#utility.yul\":2802:2822   */\n      sub\n        /* \"#utility.yul\":2798:2799   */\n      0x00\n        /* \"#utility.yul\":2787:2796   */\n      dup4\n        /* \"#utility.yul\":2783:2800   */\n      add\n        /* \"#utility.yul\":2776:2823   */\n      mstore\n        /* \"#utility.yul\":2840:2971   */\n      tag_91\n        /* \"#utility.yul\":2966:2970   */\n      dup2\n        /* \"#utility.yul\":2840:2971   */\n      tag_68\n      jump\t// in\n    tag_91:\n        /* \"#utility.yul\":2832:2971   */\n      swap1\n      pop\n        /* \"#utility.yul\":2559:2978   */\n      swap2\n      swap1\n      pop\n      jump\t// out\n        /* \"#utility.yul\":2984:3403   */\n    tag_42:\n        /* \"#utility.yul\":3150:3154   */\n      0x00\n        /* \"#utility.yul\":3188:3190   */\n      0x20\n        /* \"#utility.yul\":3177:3186   */\n      dup3\n        /* \"#utility.yul\":3173:3191   */\n      add\n        /* \"#utility.yul\":3165:3191   */\n      swap1\n      pop\n        /* \"#utility.yul\":3237:3246   */\n      dup2\n        /* \"#utility.yul\":3231:3235   */\n      dup2\n        /* \"#utility.yul\":3227:3247   */\n      sub\n        /* \"#utility.yul\":3223:3224   */\n      0x00\n        /* \"#utility.yul\":3212:3221   */\n      dup4\n        /* \"#utility.yul\":3208:3225   */\n      add\n        /* \"#utility.yul\":3201:3248   */\n      mstore\n        /* \"#utility.yul\":3265:3396   */\n      tag_93\n        /* \"#utility.yul\":3391:3395   */\n      dup2\n        /* \"#utility.yul\":3265:3396   */\n      tag_74\n      jump\t// in\n    tag_93:\n        /* \"#utility.yul\":3257:3396   */\n      swap1\n      pop\n        /* \"#utility.yul\":2984:3403   */\n      swap2\n      swap1\n      pop\n      jump\t// out\n        /* \"#utility.yul\":3409:3828   */\n    tag_39:\n        /* \"#utility.yul\":3575:3579   */\n      0x00\n        /* \"#utility.yul\":3613:3615   */\n      0x20\n        /* \"#utility.yul\":3602:3611   */\n      dup3\n        /* \"#utility.yul\":3598:3616   */\n      add\n        /* \"#utility.yul\":3590:3616   */\n      swap1\n      pop\n        /* \"#utility.yul\":3662:3671   */\n      dup2\n        /* \"#utility.yul\":3656:3660   */\n      dup2\n        /* \"#utility.yul\":3652:3672   */\n      sub\n        /* \"#utility.yul\":3648:3649   */\n      0x00\n        /* \"#utility.yul\":3637:3646   */\n      dup4\n        /* \"#utility.yul\":3633:3650   */\n      add\n        /* \"#utility.yul\":3626:3673   */\n      mstore\n        /* \"#utility.yul\":3690:3821   */\n      tag_95\n        /* \"#utility.yul\":3816:3820   */\n      dup2\n        /* \"#utility.yul\":3690:3821   */\n      tag_79\n      jump\t// in\n    tag_95:\n        /* \"#utility.yul\":3682:3821   */\n      swap1\n      pop\n        /* \"#utility.yul\":3409:3828   */\n      swap2\n      swap1\n      pop\n      jump\t// out\n        /* \"#utility.yul\":3834:4056   */\n    tag_11:\n        /* \"#utility.yul\":3927:3931   */\n      0x00\n        /* \"#utility.yul\":3965:3967   */\n      0x20\n        /* \"#utility.yul\":3954:3963   */\n      dup3\n        /* \"#utility.yul\":3950:3968   */\n      add\n        /* \"#utility.yul\":3942:3968   */\n      swap1\n      pop\n        /* \"#utility.yul\":3978:4049   */\n      tag_97\n        /* \"#utility.yul\":4046:4047   */\n      0x00\n        /* \"#utility.yul\":4035:4044   */\n      dup4\n        /* \"#utility.yul\":4031:4048   */\n      add\n        /* \"#utility.yul\":4022:4028   */\n      dup5\n        /* \"#utility.yul\":3978:4049   */\n      tag_84\n      jump\t// in\n    tag_97:\n        /* \"#utility.yul\":3834:4056   */\n      swap3\n      swap2\n      pop\n      pop\n      jump\t// out\n        /* \"#utility.yul\":4143:4312   */\n    tag_71:\n        /* \"#utility.yul\":4227:4238   */\n      0x00\n        /* \"#utility.yul\":4261:4267   */\n      dup3\n        /* \"#utility.yul\":4256:4259   */\n      dup3\n        /* \"#utility.yul\":4249:4268   */\n      mstore\n        /* \"#utility.yul\":4301:4305   */\n      0x20\n        /* \"#utility.yul\":4296:4299   */\n      dup3\n        /* \"#utility.yul\":4292:4306   */\n      add\n        /* \"#utility.yul\":4277:4306   */\n      swap1\n      pop\n        /* \"#utility.yul\":4143:4312   */\n      swap3\n      swap2\n      pop\n      pop\n      jump\t// out\n        /* \"#utility.yul\":4318:4623   */\n    tag_36:\n        /* \"#utility.yul\":4358:4361   */\n      0x00\n        /* \"#utility.yul\":4377:4397   */\n      tag_102\n        /* \"#utility.yul\":4395:4396   */\n      dup3\n        /* \"#utility.yul\":4377:4397   */\n      tag_87\n      jump\t// in\n    tag_102:\n        /* \"#utility.yul\":4372:4397   */\n      swap2\n      pop\n        /* \"#utility.yul\":4411:4431   */\n      tag_103\n        /* \"#utility.yul\":4429:4430   */\n      dup4\n        /* \"#utility.yul\":4411:4431   */\n      tag_87\n      jump\t// in\n    tag_103:\n        /* \"#utility.yul\":4406:4431   */\n      swap3\n      pop\n        /* \"#utility.yul\":4565:4566   */\n      dup3\n        /* \"#utility.yul\":4497:4563   */\n      0xffffffffffffffffffffffffffffffffffffffffffffffffffffffffffffffff\n        /* \"#utility.yul\":4493:4567   */\n      sub\n        /* \"#utility.yul\":4490:4491   */\n      dup3\n        /* \"#utility.yul\":4487:4568   */\n      gt\n        /* \"#utility.yul\":4484:4591   */\n      iszero\n      tag_104\n      jumpi\n        /* \"#utility.yul\":4571:4589   */\n      tag_105\n      tag_106\n      jump\t// in\n    tag_105:\n        /* \"#utility.yul\":4484:4591   */\n    tag_104:\n        /* \"#utility.yul\":4615:4616   */\n      dup3\n        /* \"#utility.yul\":4612:4613   */\n      dup3\n        /* \"#utility.yul\":4608:4617   */\n      add\n        /* \"#utility.yul\":4601:4617   */\n      swap1\n      pop\n        /* \"#utility.yul\":4318:4623   */\n      swap3\n      swap2\n      pop\n      pop\n      jump\t// out\n        /* \"#utility.yul\":4629:4725   */\n    tag_67:\n        /* \"#utility.yul\":4666:4673   */\n      0x00\n        /* \"#utility.yul\":4695:4719   */\n      tag_108\n        /* \"#utility.yul\":4713:4718   */\n      dup3\n        /* \"#utility.yul\":4695:4719   */\n      tag_109\n      jump\t// in\n    tag_108:\n        /* \"#utility.yul\":4684:4719   */\n      swap1\n      pop\n        /* \"#utility.yul\":4629:4725   */\n      swap2\n      swap1\n      pop\n      jump\t// out\n        /* \"#utility.yul\":4731:4857   */\n    tag_109:\n        /* \"#utility.yul\":4768:4775   */\n      0x00\n        /* \"#utility.yul\":4808:4850   */\n      0xffffffffffffffffffffffffffffffffffffffff\n        /* \"#utility.yul\":4801:4806   */\n      dup3\n        /* \"#utility.yul\":4797:4851   */\n      and\n        /* \"#utility.yul\":4786:4851   */\n      swap1\n      pop\n        /* \"#utility.yul\":4731:4857   */\n      swap2\n      swap1\n      pop\n      jump\t// out\n        /* \"#utility.yul\":4863:4940   */\n    tag_87:\n        /* \"#utility.yul\":4900:4907   */\n      0x00\n        /* \"#utility.yul\":4929:4934   */\n      dup2\n        /* \"#utility.yul\":4918:4934   */\n      swap1\n      pop\n        /* \"#utility.yul\":4863:4940   */\n      swap2\n      swap1\n      pop\n      jump\t// out\n        /* \"#utility.yul\":4946:5126   */\n    tag_106:\n        /* \"#utility.yul\":4994:5071   */\n      0x4e487b7100000000000000000000000000000000000000000000000000000000\n        /* \"#utility.yul\":4991:4992   */\n      0x00\n        /* \"#utility.yul\":4984:5072   */\n      mstore\n        /* \"#utility.yul\":5091:5095   */\n      0x11\n        /* \"#utility.yul\":5088:5089   */\n      0x04\n        /* \"#utility.yul\":5081:5096   */\n      mstore\n        /* \"#utility.yul\":5115:5119   */\n      0x24\n        /* \"#utility.yul\":5112:5113   */\n      0x00\n        /* \"#utility.yul\":5105:5120   */\n      revert\n        /* \"#utility.yul\":5255:5372   */\n    tag_58:\n        /* \"#utility.yul\":5364:5365   */\n      0x00\n        /* \"#utility.yul\":5361:5362   */\n      dup1\n        /* \"#utility.yul\":5354:5366   */\n      revert\n        /* \"#utility.yul\":5378:5556   */\n    tag_73:\n        /* \"#utility.yul\":5518:5548   */\n      0x486967686573742042696420416c72656164792050726573656e742100000000\n        /* \"#utility.yul\":5514:5515   */\n      0x00\n        /* \"#utility.yul\":5506:5512   */\n      dup3\n        /* \"#utility.yul\":5502:5516   */\n      add\n        /* \"#utility.yul\":5495:5549   */\n      mstore\n        /* \"#utility.yul\":5378:5556   */\n      pop\n      jump\t// out\n        /* \"#utility.yul\":5562:5728   */\n    tag_78:\n        /* \"#utility.yul\":5702:5720   */\n      0x41756374696f6e20697320456e64656400000000000000000000000000000000\n        /* \"#utility.yul\":5698:5699   */\n      0x00\n        /* \"#utility.yul\":5690:5696   */\n      dup3\n        /* \"#utility.yul\":5686:5700   */\n      add\n        /* \"#utility.yul\":5679:5721   */\n      mstore\n        /* \"#utility.yul\":5562:5728   */\n      pop\n      jump\t// out\n        /* \"#utility.yul\":5734:5903   */\n    tag_83:\n        /* \"#utility.yul\":5874:5895   */\n      0x4269642043616e6e6f74204265205a65726f2100000000000000000000000000\n        /* \"#utility.yul\":5870:5871   */\n      0x00\n        /* \"#utility.yul\":5862:5868   */\n      dup3\n        /* \"#utility.yul\":5858:5872   */\n      add\n        /* \"#utility.yul\":5851:5896   */\n      mstore\n        /* \"#utility.yul\":5734:5903   */\n      pop\n      jump\t// out\n        /* \"#utility.yul\":5909:6031   */\n    tag_50:\n        /* \"#utility.yul\":5982:6006   */\n      tag_120\n        /* \"#utility.yul\":6000:6005   */\n      dup2\n        /* \"#utility.yul\":5982:6006   */\n      tag_67\n      jump\t// in\n    tag_120:\n        /* \"#utility.yul\":5975:5980   */\n      dup2\n        /* \"#utility.yul\":5972:6007   */\n      eq\n        /* \"#utility.yul\":5962:6025   */\n      tag_121\n      jumpi\n        /* \"#utility.yul\":6021:6022   */\n      0x00\n        /* \"#utility.yul\":6018:6019   */\n      dup1\n        /* \"#utility.yul\":6011:6023   */\n      revert\n        /* \"#utility.yul\":5962:6025   */\n    tag_121:\n        /* \"#utility.yul\":5909:6031   */\n      pop\n      jump\t// out\n        /* \"#utility.yul\":6037:6159   */\n    tag_54:\n        /* \"#utility.yul\":6110:6134   */\n      tag_123\n        /* \"#utility.yul\":6128:6133   */\n      dup2\n        /* \"#utility.yul\":6110:6134   */\n      tag_87\n      jump\t// in\n    tag_123:\n        /* \"#utility.yul\":6103:6108   */\n      dup2\n        /* \"#utility.yul\":6100:6135   */\n      eq\n        /* \"#utility.yul\":6090:6153   */\n      tag_124\n      jumpi\n        /* \"#utility.yul\":6149:6150   */\n      0x00\n        /* \"#utility.yul\":6146:6147   */\n      dup1\n        /* \"#utility.yul\":6139:6151   */\n      revert\n        /* \"#utility.yul\":6090:6153   */\n    tag_124:\n        /* \"#utility.yul\":6037:6159   */\n      pop\n      jump\t// out\n\n    auxdata: 0xa2646970667358221220318ee1b60f6bff22be7fd78992e5e833fa33c2f0d3b5db06bbff969bb43bdb6264736f6c63430008070033\n}\n",
				"bytecode": {
					"linkReferences": {},
					"object": "608060405234801561001057600080fd5b5061069a806100206000396000f3fe60806040526004361061004a5760003560e01c8063167fb50e1461004f5780637f6a9d501461007a578063996657af146100a3578063e71ba2bd146100ce578063f5cc772a1461010b575b600080fd5b34801561005b57600080fd5b50610064610115565b60405161007191906104c9565b60405180910390f35b34801561008657600080fd5b506100a1600480360381019061009c919061039a565b61011f565b005b3480156100af57600080fd5b506100b8610129565b6040516100c5919061044e565b60405180910390f35b3480156100da57600080fd5b506100f560048036038101906100f0919061036d565b610153565b60405161010291906104c9565b60405180910390f35b61011361019b565b005b6000600154905090565b8060048190555050565b6000600260009054906101000a900473ffffffffffffffffffffffffffffffffffffffff16905090565b60008060008373ffffffffffffffffffffffffffffffffffffffff1673ffffffffffffffffffffffffffffffffffffffff168152602001908152602001600020549050919050565b6000346000803373ffffffffffffffffffffffffffffffffffffffff1673ffffffffffffffffffffffffffffffffffffffff168152602001908152602001600020546101e791906104f5565b90506000341161022c576040517f08c379a0000000000000000000000000000000000000000000000000000000008152600401610223906104a9565b60405180910390fd5b600454421115610271576040517f08c379a000000000000000000000000000000000000000000000000000000000815260040161026890610489565b60405180910390fd5b60015481116102b5576040517f08c379a00000000000000000000000000000000000000000000000000000000081526004016102ac90610469565b60405180910390fd5b806000803373ffffffffffffffffffffffffffffffffffffffff1673ffffffffffffffffffffffffffffffffffffffff168152602001908152602001600020819055508060018190555033600260006101000a81548173ffffffffffffffffffffffffffffffffffffffff021916908373ffffffffffffffffffffffffffffffffffffffff16021790555050565b60008135905061035281610636565b92915050565b6000813590506103678161064d565b92915050565b600060208284031215610383576103826105b6565b5b600061039184828501610343565b91505092915050565b6000602082840312156103b0576103af6105b6565b5b60006103be84828501610358565b91505092915050565b6103d08161054b565b82525050565b60006103e3601c836104e4565b91506103ee826105bb565b602082019050919050565b60006104066010836104e4565b9150610411826105e4565b602082019050919050565b60006104296013836104e4565b91506104348261060d565b602082019050919050565b6104488161057d565b82525050565b600060208201905061046360008301846103c7565b92915050565b60006020820190508181036000830152610482816103d6565b9050919050565b600060208201905081810360008301526104a2816103f9565b9050919050565b600060208201905081810360008301526104c28161041c565b9050919050565b60006020820190506104de600083018461043f565b92915050565b600082825260208201905092915050565b60006105008261057d565b915061050b8361057d565b9250827fffffffffffffffffffffffffffffffffffffffffffffffffffffffffffffffff038211156105405761053f610587565b5b828201905092915050565b60006105568261055d565b9050919050565b600073ffffffffffffffffffffffffffffffffffffffff82169050919050565b6000819050919050565b7f4e487b7100000000000000000000000000000000000000000000000000000000600052601160045260246000fd5b600080fd5b7f486967686573742042696420416c72656164792050726573656e742100000000600082015250565b7f41756374696f6e20697320456e64656400000000000000000000000000000000600082015250565b7f4269642043616e6e6f74204265205a65726f2100000000000000000000000000600082015250565b61063f8161054b565b811461064a57600080fd5b50565b6106568161057d565b811461066157600080fd5b5056fea2646970667358221220318ee1b60f6bff22be7fd78992e5e833fa33c2f0d3b5db06bbff969bb43bdb6264736f6c63430008070033",
					"opcodes": "PUSH1 0x80 PUSH1 0x40 MSTORE CALLVALUE DUP1 ISZERO PUSH2 0x10 JUMPI PUSH1 0x0 DUP1 REVERT JUMPDEST POP PUSH2 0x69A DUP1 PUSH2 0x20 PUSH1 0x0 CODECOPY PUSH1 0x0 RETURN INVALID PUSH1 0x80 PUSH1 0x40 MSTORE PUSH1 0x4 CALLDATASIZE LT PUSH2 0x4A JUMPI PUSH1 0x0 CALLDATALOAD PUSH1 0xE0 SHR DUP1 PUSH4 0x167FB50E EQ PUSH2 0x4F JUMPI DUP1 PUSH4 0x7F6A9D50 EQ PUSH2 0x7A JUMPI DUP1 PUSH4 0x996657AF EQ PUSH2 0xA3 JUMPI DUP1 PUSH4 0xE71BA2BD EQ PUSH2 0xCE JUMPI DUP1 PUSH4 0xF5CC772A EQ PUSH2 0x10B JUMPI JUMPDEST PUSH1 0x0 DUP1 REVERT JUMPDEST CALLVALUE DUP1 ISZERO PUSH2 0x5B JUMPI PUSH1 0x0 DUP1 REVERT JUMPDEST POP PUSH2 0x64 PUSH2 0x115 JUMP JUMPDEST PUSH1 0x40 MLOAD PUSH2 0x71 SWAP2 SWAP1 PUSH2 0x4C9 JUMP JUMPDEST PUSH1 0x40 MLOAD DUP1 SWAP2 SUB SWAP1 RETURN JUMPDEST CALLVALUE DUP1 ISZERO PUSH2 0x86 JUMPI PUSH1 0x0 DUP1 REVERT JUMPDEST POP PUSH2 0xA1 PUSH1 0x4 DUP1 CALLDATASIZE SUB DUP2 ADD SWAP1 PUSH2 0x9C SWAP2 SWAP1 PUSH2 0x39A JUMP JUMPDEST PUSH2 0x11F JUMP JUMPDEST STOP JUMPDEST CALLVALUE DUP1 ISZERO PUSH2 0xAF JUMPI PUSH1 0x0 DUP1 REVERT JUMPDEST POP PUSH2 0xB8 PUSH2 0x129 JUMP JUMPDEST PUSH1 0x40 MLOAD PUSH2 0xC5 SWAP2 SWAP1 PUSH2 0x44E JUMP JUMPDEST PUSH1 0x40 MLOAD DUP1 SWAP2 SUB SWAP1 RETURN JUMPDEST CALLVALUE DUP1 ISZERO PUSH2 0xDA JUMPI PUSH1 0x0 DUP1 REVERT JUMPDEST POP PUSH2 0xF5 PUSH1 0x4 DUP1 CALLDATASIZE SUB DUP2 ADD SWAP1 PUSH2 0xF0 SWAP2 SWAP1 PUSH2 0x36D JUMP JUMPDEST PUSH2 0x153 JUMP JUMPDEST PUSH1 0x40 MLOAD PUSH2 0x102 SWAP2 SWAP1 PUSH2 0x4C9 JUMP JUMPDEST PUSH1 0x40 MLOAD DUP1 SWAP2 SUB SWAP1 RETURN JUMPDEST PUSH2 0x113 PUSH2 0x19B JUMP JUMPDEST STOP JUMPDEST PUSH1 0x0 PUSH1 0x1 SLOAD SWAP1 POP SWAP1 JUMP JUMPDEST DUP1 PUSH1 0x4 DUP2 SWAP1 SSTORE POP POP JUMP JUMPDEST PUSH1 0x0 PUSH1 0x2 PUSH1 0x0 SWAP1 SLOAD SWAP1 PUSH2 0x100 EXP SWAP1 DIV PUSH20 0xFFFFFFFFFFFFFFFFFFFFFFFFFFFFFFFFFFFFFFFF AND SWAP1 POP SWAP1 JUMP JUMPDEST PUSH1 0x0 DUP1 PUSH1 0x0 DUP4 PUSH20 0xFFFFFFFFFFFFFFFFFFFFFFFFFFFFFFFFFFFFFFFF AND PUSH20 0xFFFFFFFFFFFFFFFFFFFFFFFFFFFFFFFFFFFFFFFF AND DUP2 MSTORE PUSH1 0x20 ADD SWAP1 DUP2 MSTORE PUSH1 0x20 ADD PUSH1 0x0 KECCAK256 SLOAD SWAP1 POP SWAP2 SWAP1 POP JUMP JUMPDEST PUSH1 0x0 CALLVALUE PUSH1 0x0 DUP1 CALLER PUSH20 0xFFFFFFFFFFFFFFFFFFFFFFFFFFFFFFFFFFFFFFFF AND PUSH20 0xFFFFFFFFFFFFFFFFFFFFFFFFFFFFFFFFFFFFFFFF AND DUP2 MSTORE PUSH1 0x20 ADD SWAP1 DUP2 MSTORE PUSH1 0x20 ADD PUSH1 0x0 KECCAK256 SLOAD PUSH2 0x1E7 SWAP2 SWAP1 PUSH2 0x4F5 JUMP JUMPDEST SWAP1 POP PUSH1 0x0 CALLVALUE GT PUSH2 0x22C JUMPI PUSH1 0x40 MLOAD PUSH32 0x8C379A000000000000000000000000000000000000000000000000000000000 DUP2 MSTORE PUSH1 0x4 ADD PUSH2 0x223 SWAP1 PUSH2 0x4A9 JUMP JUMPDEST PUSH1 0x40 MLOAD DUP1 SWAP2 SUB SWAP1 REVERT JUMPDEST PUSH1 0x4 SLOAD TIMESTAMP GT ISZERO PUSH2 0x271 JUMPI PUSH1 0x40 MLOAD PUSH32 0x8C379A000000000000000000000000000000000000000000000000000000000 DUP2 MSTORE PUSH1 0x4 ADD PUSH2 0x268 SWAP1 PUSH2 0x489 JUMP JUMPDEST PUSH1 0x40 MLOAD DUP1 SWAP2 SUB SWAP1 REVERT JUMPDEST PUSH1 0x1 SLOAD DUP2 GT PUSH2 0x2B5 JUMPI PUSH1 0x40 MLOAD PUSH32 0x8C379A000000000000000000000000000000000000000000000000000000000 DUP2 MSTORE PUSH1 0x4 ADD PUSH2 0x2AC SWAP1 PUSH2 0x469 JUMP JUMPDEST PUSH1 0x40 MLOAD DUP1 SWAP2 SUB SWAP1 REVERT JUMPDEST DUP1 PUSH1 0x0 DUP1 CALLER PUSH20 0xFFFFFFFFFFFFFFFFFFFFFFFFFFFFFFFFFFFFFFFF AND PUSH20 0xFFFFFFFFFFFFFFFFFFFFFFFFFFFFFFFFFFFFFFFF AND DUP2 MSTORE PUSH1 0x20 ADD SWAP1 DUP2 MSTORE PUSH1 0x20 ADD PUSH1 0x0 KECCAK256 DUP2 SWAP1 SSTORE POP DUP1 PUSH1 0x1 DUP2 SWAP1 SSTORE POP CALLER PUSH1 0x2 PUSH1 0x0 PUSH2 0x100 EXP DUP2 SLOAD DUP2 PUSH20 0xFFFFFFFFFFFFFFFFFFFFFFFFFFFFFFFFFFFFFFFF MUL NOT AND SWAP1 DUP4 PUSH20 0xFFFFFFFFFFFFFFFFFFFFFFFFFFFFFFFFFFFFFFFF AND MUL OR SWAP1 SSTORE POP POP JUMP JUMPDEST PUSH1 0x0 DUP2 CALLDATALOAD SWAP1 POP PUSH2 0x352 DUP2 PUSH2 0x636 JUMP JUMPDEST SWAP3 SWAP2 POP POP JUMP JUMPDEST PUSH1 0x0 DUP2 CALLDATALOAD SWAP1 POP PUSH2 0x367 DUP2 PUSH2 0x64D JUMP JUMPDEST SWAP3 SWAP2 POP POP JUMP JUMPDEST PUSH1 0x0 PUSH1 0x20 DUP3 DUP5 SUB SLT ISZERO PUSH2 0x383 JUMPI PUSH2 0x382 PUSH2 0x5B6 JUMP JUMPDEST JUMPDEST PUSH1 0x0 PUSH2 0x391 DUP5 DUP3 DUP6 ADD PUSH2 0x343 JUMP JUMPDEST SWAP2 POP POP SWAP3 SWAP2 POP POP JUMP JUMPDEST PUSH1 0x0 PUSH1 0x20 DUP3 DUP5 SUB SLT ISZERO PUSH2 0x3B0 JUMPI PUSH2 0x3AF PUSH2 0x5B6 JUMP JUMPDEST JUMPDEST PUSH1 0x0 PUSH2 0x3BE DUP5 DUP3 DUP6 ADD PUSH2 0x358 JUMP JUMPDEST SWAP2 POP POP SWAP3 SWAP2 POP POP JUMP JUMPDEST PUSH2 0x3D0 DUP2 PUSH2 0x54B JUMP JUMPDEST DUP3 MSTORE POP POP JUMP JUMPDEST PUSH1 0x0 PUSH2 0x3E3 PUSH1 0x1C DUP4 PUSH2 0x4E4 JUMP JUMPDEST SWAP2 POP PUSH2 0x3EE DUP3 PUSH2 0x5BB JUMP JUMPDEST PUSH1 0x20 DUP3 ADD SWAP1 POP SWAP2 SWAP1 POP JUMP JUMPDEST PUSH1 0x0 PUSH2 0x406 PUSH1 0x10 DUP4 PUSH2 0x4E4 JUMP JUMPDEST SWAP2 POP PUSH2 0x411 DUP3 PUSH2 0x5E4 JUMP JUMPDEST PUSH1 0x20 DUP3 ADD SWAP1 POP SWAP2 SWAP1 POP JUMP JUMPDEST PUSH1 0x0 PUSH2 0x429 PUSH1 0x13 DUP4 PUSH2 0x4E4 JUMP JUMPDEST SWAP2 POP PUSH2 0x434 DUP3 PUSH2 0x60D JUMP JUMPDEST PUSH1 0x20 DUP3 ADD SWAP1 POP SWAP2 SWAP1 POP JUMP JUMPDEST PUSH2 0x448 DUP2 PUSH2 0x57D JUMP JUMPDEST DUP3 MSTORE POP POP JUMP JUMPDEST PUSH1 0x0 PUSH1 0x20 DUP3 ADD SWAP1 POP PUSH2 0x463 PUSH1 0x0 DUP4 ADD DUP5 PUSH2 0x3C7 JUMP JUMPDEST SWAP3 SWAP2 POP POP JUMP JUMPDEST PUSH1 0x0 PUSH1 0x20 DUP3 ADD SWAP1 POP DUP2 DUP2 SUB PUSH1 0x0 DUP4 ADD MSTORE PUSH2 0x482 DUP2 PUSH2 0x3D6 JUMP JUMPDEST SWAP1 POP SWAP2 SWAP1 POP JUMP JUMPDEST PUSH1 0x0 PUSH1 0x20 DUP3 ADD SWAP1 POP DUP2 DUP2 SUB PUSH1 0x0 DUP4 ADD MSTORE PUSH2 0x4A2 DUP2 PUSH2 0x3F9 JUMP JUMPDEST SWAP1 POP SWAP2 SWAP1 POP JUMP JUMPDEST PUSH1 0x0 PUSH1 0x20 DUP3 ADD SWAP1 POP DUP2 DUP2 SUB PUSH1 0x0 DUP4 ADD MSTORE PUSH2 0x4C2 DUP2 PUSH2 0x41C JUMP JUMPDEST SWAP1 POP SWAP2 SWAP1 POP JUMP JUMPDEST PUSH1 0x0 PUSH1 0x20 DUP3 ADD SWAP1 POP PUSH2 0x4DE PUSH1 0x0 DUP4 ADD DUP5 PUSH2 0x43F JUMP JUMPDEST SWAP3 SWAP2 POP POP JUMP JUMPDEST PUSH1 0x0 DUP3 DUP3 MSTORE PUSH1 0x20 DUP3 ADD SWAP1 POP SWAP3 SWAP2 POP POP JUMP JUMPDEST PUSH1 0x0 PUSH2 0x500 DUP3 PUSH2 0x57D JUMP JUMPDEST SWAP2 POP PUSH2 0x50B DUP4 PUSH2 0x57D JUMP JUMPDEST SWAP3 POP DUP3 PUSH32 0xFFFFFFFFFFFFFFFFFFFFFFFFFFFFFFFFFFFFFFFFFFFFFFFFFFFFFFFFFFFFFFFF SUB DUP3 GT ISZERO PUSH2 0x540 JUMPI PUSH2 0x53F PUSH2 0x587 JUMP JUMPDEST JUMPDEST DUP3 DUP3 ADD SWAP1 POP SWAP3 SWAP2 POP POP JUMP JUMPDEST PUSH1 0x0 PUSH2 0x556 DUP3 PUSH2 0x55D JUMP JUMPDEST SWAP1 POP SWAP2 SWAP1 POP JUMP JUMPDEST PUSH1 0x0 PUSH20 0xFFFFFFFFFFFFFFFFFFFFFFFFFFFFFFFFFFFFFFFF DUP3 AND SWAP1 POP SWAP2 SWAP1 POP JUMP JUMPDEST PUSH1 0x0 DUP2 SWAP1 POP SWAP2 SWAP1 POP JUMP JUMPDEST PUSH32 0x4E487B7100000000000000000000000000000000000000000000000000000000 PUSH1 0x0 MSTORE PUSH1 0x11 PUSH1 0x4 MSTORE PUSH1 0x24 PUSH1 0x0 REVERT JUMPDEST PUSH1 0x0 DUP1 REVERT JUMPDEST PUSH32 0x486967686573742042696420416C72656164792050726573656E742100000000 PUSH1 0x0 DUP3 ADD MSTORE POP JUMP JUMPDEST PUSH32 0x41756374696F6E20697320456E64656400000000000000000000000000000000 PUSH1 0x0 DUP3 ADD MSTORE POP JUMP JUMPDEST PUSH32 0x4269642043616E6E6F74204265205A65726F2100000000000000000000000000 PUSH1 0x0 DUP3 ADD MSTORE POP JUMP JUMPDEST PUSH2 0x63F DUP2 PUSH2 0x54B JUMP JUMPDEST DUP2 EQ PUSH2 0x64A JUMPI PUSH1 0x0 DUP1 REVERT JUMPDEST POP JUMP JUMPDEST PUSH2 0x656 DUP2 PUSH2 0x57D JUMP JUMPDEST DUP2 EQ PUSH2 0x661 JUMPI PUSH1 0x0 DUP1 REVERT JUMPDEST POP JUMP INVALID LOG2 PUSH5 0x6970667358 0x22 SLT KECCAK256 BALANCE DUP15 0xE1 0xB6 0xF PUSH12 0xFF22BE7FD78992E5E833FA33 0xC2 CREATE 0xD3 0xB5 0xDB MOD 0xBB SELFDESTRUCT SWAP7 SWAP12 0xB4 EXTCODESIZE 0xDB PUSH3 0x64736F PUSH13 0x63430008070033000000000000 "
				},
				"gasEstimates": {
					"creation": {
						"codeDepositCost": "338000",
						"executionCost": "374",
						"totalCost": "338374"
					},
					"external": {
						"HighestBid()": "2415",
						"HighestBidder()": "2544",
						"getBidderBid(address)": "2885",
						"putBid()": "infinite",
						"putEndTime(uint256)": "22520"
					}
				},
				"methodIdentifiers": {
					"HighestBid()": "167fb50e",
					"HighestBidder()": "996657af",
					"getBidderBid(address)": "e71ba2bd",
					"putBid()": "f5cc772a",
					"putEndTime(uint256)": "7f6a9d50"
				}
			},
			"storageLayout": {
				"storage": [
					{
						"astId": 5,
						"contract": "contracts/4_Auction.sol:Auction",
						"label": "biddersData",
						"offset": 0,
						"slot": "0",
						"type": "t_mapping(t_address,t_uint256)"
					},
					{
						"astId": 7,
						"contract": "contracts/4_Auction.sol:Auction",
						"label": "highestBidAmount",
						"offset": 0,
						"slot": "1",
						"type": "t_uint256"
					},
					{
						"astId": 9,
						"contract": "contracts/4_Auction.sol:Auction",
						"label": "highestBidder",
						"offset": 0,
						"slot": "2",
						"type": "t_address"
					},
					{
						"astId": 11,
						"contract": "contracts/4_Auction.sol:Auction",
						"label": "startTime",
						"offset": 0,
						"slot": "3",
						"type": "t_uint256"
					},
					{
						"astId": 13,
						"contract": "contracts/4_Auction.sol:Auction",
						"label": "endTime",
						"offset": 0,
						"slot": "4",
						"type": "t_uint256"
					}
				],
				"types": {
					"t_address": {
						"encoding": "inplace",
						"label": "address",
						"numberOfBytes": "20"
					},
					"t_mapping(t_address,t_uint256)": {
						"encoding": "mapping",
						"key": "t_address",
						"label": "mapping(address => uint256)",
						"numberOfBytes": "32",
						"value": "t_uint256"
					},
					"t_uint256": {
						"encoding": "inplace",
						"label": "uint256",
						"numberOfBytes": "32"
					}
				}
			},
			"userdoc": {
				"kind": "user",
				"methods": {},
				"version": 1
			}
		}
	}
}